:020000040800F2
:1000000058040020C1010008C9010008CB01000804
:10001000CD010008CF010008D10100080000000058
:10002000000000000000000000000000D3010008F4
:10003000D501000800000000D7010008F10A0008FF
:10004000DB010008DB010008DB010008DB01000820
:10005000DB010008DB010008DB010008DB01000810
:10006000DB010008DB010008DB010008DB01000800
:10007000DB010008DB010008DB010008DB010008F0
:10008000DB010008DB010008DB010008DB010008E0
:10009000DB010008DB010008DB010008DB010008D0
:1000A000DB010008DB010008DB010008DB010008C0
:1000B000DB010008DB010008DB010008DB010008B0
:1000C000DB010008DB010008DB010008DB010008A0
:1000D000DB010008DB010008DB010008DB01000890
:1000E000DB010008DB010008DB010008DB01000880
:1000F000DB010008DB010008DB010008DB01000870
:10010000DB010008DB010008DB010008DB0100085F
:10011000DB010008DB010008DB010008DB0100084F
:10012000DB010008DB010008DB010008DB0100083F
:10013000DB010008DB010008DB010008DB0100082F
:10014000DB010008DB010008DB010008DB0100081F
:10015000DB010008DB010008DB010008DB0100080F
:10016000DB010008DB010008DB010008DB010008FF
:10017000DB010008DB010008DB010008DB010008EF
:10018000DB010008DB010008DB010008DB010008DF
:10019000DB010008DB010008DB010008DB010008CF
:1001A000DB010008DB010008DB010008DFF80CD0F0
:1001B00000F018F800480047750D000858040020AA
:1001C0000648804706480047FEE7FEE7FEE7FEE7F1
:1001D000FEE7FEE7FEE7FEE7FEE7FEE7010B0008AD
:1001E000AD010008064C074D06E0E06840F0010351
:1001F00094E8070098471034AC42F6D3FFF7DAFFD3
:10020000480E0008680E00080E4800B5016885B069
:1002100041F001010160016841F004010160012029
:100220000190002003900290222000906946064829
:1002300000F00EF80A2000906946044800F008F823
:1002400005B000BD30380240000002400008024006
:100250002DE9F04F0022DFF8E8E101254FF0030B14
:100260004FF00F0A0B6805FA02F42340A3427DD138
:100270004E68022E01D0122E14D156070F694FEA94
:10028000D66C07FA0CF9D60800EB8606376A0AFA2C
:100290000CF827EA08073762D6F820C04CEA090CA8
:1002A000C6F820C0D0F800C056000BFA06F72CEABA
:1002B000070CC0F800C091F804C0D0F800800CF022
:1002C000030C0CFA06FC4CEA080CC0F800C0D1F88C
:1002D00004C0BCF1010F08D0BCF1020F05D0BCF185
:1002E000110F02D0BCF1120F1FD1D0F808C02CEAB8
:1002F000070CC0F808C0D1F80CC0D0F808800CFA80
:1003000006FC4CEA080CC0F808C0D0F804C02CEA7F
:10031000040CC0F804C0D0F804C00C79C4F3001475
:1003200094404CEA040CC0F804C0C468BC43C460E8
:100330008C68B440C6683443C4604C68E40079D526
:10034000404C266846F4804626609407270F3E4CB2
:1003500022F0030C64440AFA07F6D4F808C82CEA21
:10036000060CC4F808C8394EB04200E062E001D182
:1003700000262DE0364EB04201D1012628E0354E50
:10038000B04201D1022623E0334EB04201D1032610
:100390001EE0324EB04201D1042619E0304EB04288
:1003A00001D1052614E02F4EB04201D106260FE000
:1003B0002D4EB04201D107260AE02C4EB04201D1A9
:1003C000082605E02A4EB04201D1092600E00A269F
:1003D000BE40D4F808783E43C4F80868DEF80060F0
:1003E00074469E43CEF80060154E361D37689F4315
:1003F00037604F68FF0302D527681F4327604C68AA
:10040000A40302D534681C4334600D4C08342668BC
:100410009E432660261D37689F4337604F68FF0262
:1004200002D527681F4327604C68A40202D53468B0
:100430001C433460521C102AFFF414AFBDE8F08F47
:10044000003C0140443802400030014000000240BE
:100450000004024000080240000C0240001002406C
:100460000014024000180240001C0240002002401C
:100470000024024042694A40426170470AB1018348
:1004800070474183704700000148006870470000D2
:100490001400002002480168491C016070470000F8
:1004A000140000200C4810B5016841F4007101608F
:1004B000016841F480610160016841F4807101606C
:1004C0004FF47A5000F035FA032000F009F800F0FC
:1004D00005F8002010BD0000003C024070470000FD
:1004E000064900F0070208684FF6FF03184040EA8B
:1004F0000220034A10430860704700000CED00E042
:100500000000FA0500B500F043F808490968F02238
:1005100092FAA2F201F0F001B2FA82F2D140044A5A
:10052000515CC8400349086000BD00000838024023
:10053000380E00080000002000B5FFF7E3FF074970
:1005400009684FF4E05292FAA2F201F4E051B2FAD3
:1005500082F2D140024A515CC84000BD08380240D6
:10056000380E000800B5FFF7CDFF074909684FF4C2
:10057000604292FAA2F201F46041B2FA82F2D140F2
:10058000024A515CC84000BD08380240380E0008DD
:1005900030B51D48006810F00C011C481AD01C4CE6
:1005A000042916D0082915D11749091F0A6802F035
:1005B0003F030A6802F480054FF4800292FAA2F227
:1005C000B2FA82F2D54047F6C07204D0B4FBF3F021
:1005D00003E0204630BDB0FBF3F00B680968134020
:1005E00092FAA2F2B2FA82F2D34058434FF4403268
:1005F00092FAA2F201F44031B2FA82F2D140491CDF
:100600004900B0FBF1F030BD083802400024F4008E
:1006100040787D012DE9F84F04460078DFF8FC9220
:10062000BF4DC0074FF0000649D0D9F8001048462A
:10063000C1F38101012908D00068C0F381000228BC
:100640000AD1281D0068400206D52868800336D5E7
:100650006068012874D132E0DFF8C4A20AF1020A0E
:100660008AF80060FFF710FF41F2883700EB0708B7
:1006700004E000BFFFF708FF40457BD228688003F5
:10068000F8D420798AF800006068012803D0FFF7C9
:10069000FBFE074410E0FFF7F7FE074404E000BF4D
:1006A000FFF7F2FEB842E8D228688003F8D506E0EA
:1006B000FFF7EAFEB842E0D228688003F8D4207839
:1006C000984F80074FF0010B43D5D9F800104846EA
:1006D00011F00C0F09D00068C0F3810002280BD183
:1006E0008E48001F0068400206D42868800730D575
:1006F000E0680128AED12CE0E068D8B1C7F800B0BE
:10070000FFF7C2FE00F1640804E000BFFFF7BCFE83
:100710004045B2D228688007F8D52868F82292FAB6
:10072000A2F22169B2FA82F220F0F8009140084367
:1007300028600EE03E60FFF7A7FE00F1640805E0C8
:10074000EAE000BFFFF7A0FE404513D2286880070B
:10075000F8D42078000727D5DFF8C0A17248616976
:100760000AF16C0A89B1C0F800B0FFF78DFE00F104
:10077000640805E07EE000BFFFF786FE404579D2C1
:10078000DAF800008007F7D50EE00660FFF77CFE80
:1007900000F1640804E000BFFFF776FE404569D22F
:1007A000DAF800008007F7D42078400752D55B487C
:1007B0003830016841F080510160DFF870A1DAF84B
:1007C000001041F48071CAF80010FFF75DFE00F1DF
:1007D000640803E0FFF758FE40454BD2DAF800000A
:1007E000C005F7D5DFF8348108F1680888F80060A3
:1007F000FFF74AFE41F2883A5044009005E000BFFE
:10080000FFF742FE009988427ED2D8F800008007A8
:10081000F6D4207A88F80000A068012803D0FFF7FA
:1008200033FE824412E0FFF72FFE824404E000BF53
:10083000FFF72AFE504567D2D8F800008007F7D5A9
:1008400008E000BFFFF720FE50455DD2D8F8000059
:100850008007F7D4A069E8B3D9F80010C1F381018B
:10086000022959D002283E6605D0FFF70DFE00F19F
:1008700064044CE048E0FFF707FE00F1640603E083
:10088000FFF702FEB0423FD228688001F8D4D4E9D5
:100890000710084347F6C07292FAA2F2616AB2FAF0
:1008A00082F29140A26A4FF0FF3303EB52024FF401
:1008B000403393FAA3F3B3FA83F39A401143084306
:1008C0004FF0706292FAA2F2E16AB2FA82F29140BB
:1008D000084300E01EE040F000511048001F016096
:1008E000C7F860B0FFF7D0FD00F1640404E000BF7A
:1008F000FFF7CAFDA04207D228688001F8D509E0B9
:10090000FFF7C2FDA04202D30320BDE8F88F28689C
:100910008001F5D40020F8E70120F6E7083802400E
:100920000038024000004742800E474200700040FD
:10093000704710B5401EB0F1807F01D3012010BD7B
:100940004FF0E02460610F21601700F0C1F8002033
:10095000A06107202061002010BD10B5FFF7E8FF5F
:1009600010BD10B5040003D094F8390010B104E0B4
:10097000012010BD204600F023F8022084F8390041
:100980002068C16821F40051C160204600F0E2F8FF
:100990002068016921F4904101612068416921F0DA
:1009A0002A0141612068C16841F40051C160002002
:1009B00084F83A00012084F83900002010BD0000BE
:1009C00000B500680C4985B0884212D10B48016817
:1009D00041F0100101604FF4F050009002200190AE
:1009E0000020029003900720049069460448FFF716
:1009F0002FFC05B000BD000000100140443802404B
:100A0000000002402DE9F047044690F8390099466D
:100A10000D46012801D0222858D12DB322B394F8D5
:100A20003800012852D0012684F83860002784F865
:100A30003A7094F83900222819D0122084F839002D
:100A4000A284E2844FF48058E08C4B46401EE08440
:100A5000A0684FF0000240454FF08001204613D1BE
:100A600000F034F908BB04E00120BDE8F087322033
:100A7000E4E728882168C0F308004860206908B1CD
:100A80006D1C08E0AD1C06E000F020F968B9216893
:100A900015F8010B4860E08C0028D5D14B460022A8
:100AA0004021204600F012F908B10320DDE794F858
:100AB0003900322806D084F8396000BF84F83870D5
:100AC0000020D2E7222084F83900F7E70220CCE7A3
:100AD0000907090E002806DA00F00F0000F1E020F7
:100AE00080F8141D704700F1E02080F80014704772
:100AF00010B5FFF7CFFCBDE81040FFF72EBF000098
:100B00001048016841F4700101600F48016841F02C
:100B1000010101600C4A00210832116002680B4B90
:100B20001A400260031D0A4A1A60026822F48022F9
:100B3000026005480C30016002495806803908609F
:100B40007047000088ED00E000380240FFFFF6FE2D
:100B5000103000242DE9F04101680446086920F4B2
:100B60004052E068104308612268D06849F20C6185
:100B700088432369A168E569194363692B431943D5
:100B80000143D1602168486920F44072A069104394
:100B90004861E26964263225B2F5004F49494A4866
:100BA00022681DD0824201D08A426AD1FFF7DAFC66
:100BB00000EBC00101EB00106168B0468900B0FB9A
:100BC000F1F1B1FBF8F6FFF7CDFC00EBC00101EB52
:100BD000001061688900B0FBF1F7FFF7C3FC69E022
:100BE000824201D08A4219D1FFF7BCFC00EBC00160
:100BF00001EB00106168B0464900B0FBF1F1B1FBB8
:100C0000F8F6FFF7AFFC00EBC00101EB00106168E4
:100C10004900B0FBF1F7FFF7A5FC18E0FFF78CFCEB
:100C200000EBC00101EB00106168B0464900B0FB69
:100C3000F1F1B1FBF8F6FFF77FFC00EBC00101EB2F
:100C4000001061684900B0FBF1F7FFF775FC00EB9D
:100C5000C00101EB001061685FEA4101B0FBF1F1F6
:100C6000B1FBF8F06FF01801484307EB800005EB8B
:100C70000011B1FBF8F0216866F31F108860BDE831
:100C8000F081FFF759FC00EBC00101EB0010616837
:100C9000B0468900B0FBF1F1B1FBF8F6FFF74CFC70
:100CA00000EBC00101EB001061688900B0FBF1F7B7
:100CB000FFF742FC00EBC00101EB00106168890006
:100CC000CCE7000000140140001001402DE9F0477E
:100CD0001D4690460E460446FFF7D6FB47195FEACD
:100CE00008004FF000094FF0010806D02CE0681C06
:100CF00003D0FFF7C9FBB8420BD22068006836EA80
:100D00000000F4D125E0681C1ED0FFF7BDFBB842FF
:100D10001AD32068C16821F08001C1602068C168D1
:100D200021F02001C1602068C16821F48071C16098
:100D30002068416921F00101416184F8398084F81B
:100D400038900320BDE8F0872068006836EA00008C
:100D5000D9D00020F6E702E008C8121F08C1002A17
:100D6000FAD170477047002001E001C1121F002A2C
:100D7000FBD1704790B0FFF795FB2448016841F024
:100D8000805101602248016821F4404141F48041D2
:100D90000160012000900390062004906846FFF750
:100DA00039FC1A481038016841F0010101601A4805
:100DB00018490C2201604FF4E1314160002181604B
:100DC000C160C0E904128161C161FFF7CAFDFFF78C
:100DD0001BFA01220A211148FFF750FB10A30DF165
:100DE000300C0FCB8CE80F00114E124D64230C22F7
:100DF0000CA90948FFF706FE22213046FFF73AFB0F
:100E00002C460221491CA142FCDBEFE7403802409E
:100E1000007000400010014018000020000802404F
:100E200048656C6C6F20776F726C64210A0000005B
:100E300000000240404B4C0000000000010203048F
:100E40000102030406070809680E000800000020DC
:100E500018000000560D0008800E00081800002041
:100E600040040000660D00080024F40000000000AB
:100E7000000000000102030406070809000000004A
:04000005080001AD41
:00000001FF
